:020000020000FC
:1000000008E00EBF0FEF0DBF8ED00FE00AB900EF72
:100010000BB9389A409A01D0FECF1EEF1BB94C990C
:1000200005C086D04C9BFECF13E371D04D9905C01F
:100030007FD04D9BFECF14E36AD04E9905C078D097
:100040004E9BFECF12E463D04F9905C071D04F9BF9
:10005000FECF13E45CD01DEF1BB94C9905C068D0EE
:100060004C9BFECF12E353D04D9905C061D04D9B00
:10007000FECF15E34CD04E9905C05AD04E9BFECF13
:1000800011E445D04F9905C053D04F9BFECF14E4E7
:100090003ED01BEF1BB94C9905C04AD04C9BFECFFC
:1000A00011E335D04D9905C043D04D9BFECF16E3EB
:1000B0002ED04E9905C03CD04E9BFECF19E327D0E1
:1000C0004F9905C035D04F9BFECF15E420D017EFD8
:1000D0001BB94C9905C02CD04C9BFECF10E317D018
:1000E0004D9905C025D04D9BFECF17E310D04E99FA
:1000F00005C01ED04E9BFECF18E309D04F9905C016
:1001000017D04F9BFECF16E402D087CF08954098BA
:1001100000000000000000001EBD2DB527FFFDCF30
:100120001EB5409A089500E104B901E40CBD08959C
:1001300054E648EC4A950000E9F75A95D1F708953E
:00000001FF
